:020000040000FA
:10000000901600209D010000A5010000A70100003E
:1000100000000000000000000000000000000000E0
:10002000000000000000000000000000A901000026
:100030000000000000000000AB010000AD01000066
:10004000AF010000AF010000AF010000AF010000F0
:10005000AF010000AF010000AF010000AF010000E0
:10006000AF010000AF010000FD16000049170000BD
:1000700095170000AF010000AF010000AF010000C4
:10008000AF010000AF010000AF010000AF010000B0
:1000900049130000AF010000AF010000AF010000F4
:1000A000AF010000AF010000AF010000AF01000090
:1000B000AF010000AF010000AF010000AF01000080
:1000C00000F002F800F03EF80CA030C80838241800
:1000D0002D18A246671EAB4654465D46AC4201D180
:1000E00000F030F87E460F3E0FCCB6460126334274
:1000F00000D0FB1AA246AB4633431847941C0000BD
:10010000B41C0000103A02D378C878C1FAD852075C
:1001100001D330C830C101D504680C6070470000BD
:100120000023002400250026103A01D378C1FBD813
:10013000520700D330C100D50B6070471FB51FBDFB
:1001400010B510BD00F057F91146FFF7F7FF01F0A9
:100150002FFD00F06FF903B4FFF7F2FF03BC00F0CE
:1001600075F9000070B505460C46164602E00FCC46
:100170000FC5103E102EFAD2082E02D303CC03C5B1
:10018000083E042E07D301CC01C5361F03E02178B9
:100190002970641C6D1C761EF9D270BD074880471B
:1001A00007480047FEE7FEE7FEE7FEE7FEE7FEE75B
:1001B00004480549054A064B70470000C915000070
:1001C000C10000009006002090160020900E002034
:1001D000900E0020F8B5042A2CD3830712D00B7898
:1001E000491C0370401C521E83070BD00B78491C1E
:1001F0000370401C521E830704D00B78491C037007
:10020000401C521E8B079B0F05D0C91ADF0020230C
:10021000DE1B08C90AE0FFF7A5FFF8BD1D4608C9A7
:10022000FD401C46B4402C4310C0121F042AF5D2D6
:10023000F308C91A521EF0D40B78491C0370401CF5
:10024000521EEAD40B78491C0370401C012AE4D4E6
:1002500009780170F8BD01E004C0091F0429FBD230
:100260008B0701D50280801CC90700D0027070473F
:1002700000290BD0C30702D00270401C491E02297E
:1002800004D3830702D50280801C891EE3E7002285
:10029000EEE70022DFE7002203098B422CD3030A9A
:1002A0008B4211D300239C464EE003460B433CD4C3
:1002B000002243088B4231D303098B421CD3030A2B
:1002C0008B4201D394463FE0C3098B4201D3CB015B
:1002D000C01A524183098B4201D38B01C01A52418B
:1002E00043098B4201D34B01C01A524103098B428F
:1002F00001D30B01C01A5241C3088B4201D3CB007A
:10030000C01A524183088B4201D38B00C01A52415C
:1003100043088B4201D34B00C01A5241411A00D20C
:1003200001465241104670475DE0CA0F00D0494275
:10033000031000D34042534000229C4603098B42E5
:100340002DD3030A8B4212D3FC22890112BA030A6D
:100350008B420CD3890192118B4208D389019211EF
:100360008B4204D389013AD0921100E08909C30974
:100370008B4201D3CB01C01A524183098B4201D376
:100380008B01C01A524143098B4201D34B01C01A61
:10039000524103098B4201D30B01C01A5241C308D9
:1003A0008B4201D3CB00C01A524183088B4201D348
:1003B0008B00C01A5241D9D243088B4201D34B0063
:1003C000C01A5241411A00D20146634652415B10A5
:1003D000104601D34042002B00D549427047634686
:1003E0005B1000D3404201B50020C046C04602BDAC
:1003F000704770477047754600F024F8AE46050018
:1004000069465346C008C000854618B020B5FFF7BE
:10041000CFFE60BC00274908B6460026C0C5C0C54F
:10042000C0C5C0C5C0C5C0C5C0C5C0C5403D4900E8
:100430008D46704710B50446C046C0462046FFF7BB
:100440008AFE10BD004870472C0600200149182084
:10045000ABBEFEE726000200704700000104090E53
:100460000006000C01430B480B4A084000091140EC
:100470000901084309490A4A0140890810408000DF
:1004800001430848084A0840400811404900084311
:1004900070470000F0F000000F0F0000CCCC00000F
:1004A00033330000AAAA000055550000F0B50F4DE7
:1004B000AB68A86000200E4E12E00B5C2C682B602D
:1004C000B4691927BF016B681B07DB0F002B05D030
:1004D000B369E31A1B021B0ABB42F4D3401C80B26F
:1004E0009042EAD3286880B2F0BD0000008001404D
:1004F00000E000E04168C905C90F002905D1816805
:10050000C905C90F002900D001694168C907C90F91
:10051000002906D18168C907C90F002901D001212E
:100520008160704710B5134911480860002000F041
:10053000F1FD11480068C243010C92B2914200D013
:1005400030204006400E00F0EFFD0C48C168C9089D
:10055000C900C160C168072212029143C160C1682D
:1005600012029143C160C168D2009143C16010BDC5
:1005700000127A001000002040FBFF1F0002004024
:1005800010B572B6142000F09DFF00BF1E488069B0
:10059000400840001C49886100BF01201B49896A4E
:1005A00081431A4A916200BF00F0CAFA0A2000F0A3
:1005B00089FF174800F0D2FD154800F0C9FD144826
:1005C00000F0C1FD124800F0B9FD0B2000F07AFFE9
:1005D000104800F0C3FD0F4800F0BAFD0D4800F0D0
:1005E000B2FD0C4800F0AAFD0C2000F06BFF0A4899
:1005F00000F0B4FD084800F0ABFD074800F0A3FD93
:10060000054800F09BFD10BD003401400002004091
:10061000001C01400020014000A0014070B50025F1
:10062000202801D2022070BD44022146074800F074
:1006300085F9002290002058401C01D0012503E0DC
:10064000521C92B2802AF5D3284670BD001000409B
:10065000F8B504460D461646002701208003844263
:1006600001D20220F8BD33462A462146084800F050
:10067000D5F9002008E08100625869588A4201D00B
:10068000012703E0401C80B2B042F4D33846F8BDE5
:100690000010004000BF02480249086000BF7047D8
:1006A0005A5A3412001401401CB500200190062053
:1006B00000906946014800F011FB1CBD0014014088
:1006C00000B589B00020089001900090074907917B
:1006D000012106914021029120210391049005906F
:1006E0006946034800F0C0F809B000BD21100000C1
:1006F0000080014000B587B01C216846FFF7C9FDA6
:1007000000200190FF200130009000200290039013
:1007100004906946184800F01BFB82201649C968FE
:10072000154AD06000BF00BF04201146486100BFD9
:1007300000BF08460069042108431146086100BF54
:10074000142000F0BFFE0221142000F0DFFE142070
:10075000002805DBC206D20E01219140074A116034
:1007600000BF00BF04488069012108430249886135
:1007700000BF07B000BD00000034014000E100E010
:10078000F3B50025364A00987D235043354A80183A
:10079000012292028418E380A2780026130001F05F
:1007A000F9F90805111B4747232E3947682901D05D
:1007B000AA253EE0E27812091201E2700122A2703D
:1007C000268136E02289022A33D342781202521857
:1007D00022800222A2702CE0682901D0AA2528E0FC
:1007E000E6700522A27024E022882389D21C93425D
:1007F00001D10627A77093421BD9AA2519E02288A8
:100800002389521D934201D10727A770934210D923
:10081000AA250EE0162901D0AA250AE00822A27016
:10082000E6800F222271E27804231A43E27000E08E
:10083000AA25002D04D1228911542089401C208131
:10084000009801F0C1F8002800D0AA25AA2D04D1F3
:10085000A670E07880088000E070A078FCBD000001
:100860000A0400002000002070B5324A904200D0F7
:10087000FEE701234A685B02002A02D09A4200D0B8
:10088000FEE7FF240A6A0134002A02D0A24200D007
:10089000FEE78A69012A06D0002A04D0022A02D083
:1008A000032A00D0FEE78A68002A06D0402A04D036
:1008B000802A02D0C02A00D0FEE7CA68002A02D0EF
:1008C000202A00D0FEE701221B4EF56A1543F5628F
:1008D0000A6A4568A543154345608A684468C0258F
:1008E000AC4314434460CA6844682025AC431443B5
:1008F00044608A694468A408A400144344600A69F7
:10090000C468C260CA69C469C2610A6884688260D6
:100910004A6844689C43144344604A690421012A9C
:1009200004D042688A434260012070BD42680A4395
:100930004260F9E70080014000020040F8B504463B
:100940000E4600252F48844200D0FEE7002E02D03C
:100950002D48864200D9FEE7202000F0B9FBB00701
:1009600001D00020F8BD206A07277F04384001210C
:10097000C904884201D10020F8BD0120800500F0A3
:10098000AFFB60690321090288436061204600F0E3
:10099000C5F8206A384001218904884208D0EFF365
:1009A000108072B61949A1611949A16180F31088BC
:1009B000012121621748306017486D1C85420ED80E
:1009C000226AD205D20F002A09D1226A9205D20FDB
:1009D000002A04D1226A5205D20F002A01D0002534
:1009E00006E0226AD207D20F002AE6D02162012552
:1009F0000020C043A0610120800500F061FB284673
:100A0000F8BD000000100040FFFF03009696969688
:100A1000EAEAEAEACDAB3412FFFF0000F8B50D4672
:100A200016461F46002408E0A00032584119064827
:100A300000F00CF8002804D0641CBC42F4D3012060
:100A4000F8BD0020F8BD000000100040F7B50446D6
:100A50000E4600252C48844200D0FEE7002E02D02E
:100A60002A48864200D9FEE7202000F031FBB0077B
:100A700001D00020FEBD206A07277F0438400121F5
:100A8000C904884201D10020FEBD0120800500F08C
:100A900027FB204600F04BF8206A38400321490428
:100AA000884208D0EFF3108072B61949A161194944
:100AB000A16180F310880298306017486D1C854250
:100AC0000ED8216AC905C90F002909D1216A8905F3
:100AD000C90F002904D1216A4905C90F002901D095
:100AE000002507E0216A8907C90F0029E6D0022006
:100AF000206201250020C043A0610120800500F094
:100B0000DFFA2846FEBD000000100040FFFF030092
:100B1000A5A5A5A5F1F1F1F1FFFF000041690222B1
:100B2000914341614169012211434161704741692B
:100B300049084900416141690222114341617047FE
:100B4000F0B585B014216846FFF7A3FB684600F0B6
:100B5000B9F80124029401941749184842690A43DC
:100B60004261164D40356A690A436A61134E803608
:100B700072690A437261124A104FC0377969114392
:100B80007961694600F01EF86946284600F01AF8B7
:100B90006946304600F016F86946384600F012F80B
:100BA000FF2081300090022001900394694638466E
:100BB00000F008F805B0F0BDFFFF0000000C004099
:100BC0007FFE000070B500233B4A90420CD03A4AA9
:100BD0004032904208D0384A8032904204D0364A9F
:100BE000C032904200D0FEE70A68002A02D0334C9F
:100BF000A24200D9FEE74A68032A06D0002A04D0A0
:100C0000012A02D0022A00D0FEE78A68012A02D017
:100C1000002A00D0FEE7CA68002A02D0012A00D0CC
:100C2000FEE78022264CA56A1543A5623EE001241A
:100C30009C402240002A38D08C68002C0BD084685D
:100C400095B22C438460CC68002C09D0446895B2DE
:100C50002C43446008E0846895B2AC438460F2E7BA
:100C6000446895B2AC4344604C68032C03D1846A59
:100C700095B22C4384624C68022C06D10C69012C7D
:100C800003D1046A95B22C4304624C68002C03D152
:100C9000046895B22C4304604C68C5685243560002
:100CA0009619B54362431543C5605B1C0A68144638
:100CB000DC40BCD1012070BD000C0040FFFF0000F3
:100CC000000200400449016000214160012282606D
:100CD000C160016170470000FFFF000030B50123D3
:100CE000174A904200D0FEE7164C4A68A24200D351
:100CF000FEE70A68002A0ED0012A0CD0022A0AD088
:100D0000032A08D0042A06D0052A04D0062A02D0D5
:100D1000072A00D0FEE720220B4CA56A1543A562E6
:100D20000A684468E408E400144344604968C268FF
:100D3000120B12030A43C26004490160184630BD19
:100D400000140140FF0F0000000200405A5A341204
:100D5000F8B504460D4601265148844200D0FEE70E
:100D6000286800280BD0C11FF93908D0C11FFF39EE
:100D7000FA3904D003210902884200D0FEE701229B
:100D800068689203002802D0904200D0FEE701215B
:100D9000A8680903002818D08B10984215D04B1072
:100DA000984212D003239B0298420ED088420CD066
:100DB00005239B02984208D00323DB02984204D00B
:100DC00007239B02984200D0FEE7E868002806D07F
:100DD000012804D0032802D0022800D0FEE7A86929
:100DE000002804D0202802D0402800D0FEE728693F
:100DF000002802D0042800D0FEE76869002802D04D
:100E0000802800D0FEE70120264FBB6A0343BB6267
:100E1000244B4033186B084318636868216891437A
:100E200001432160A868216807229202914301438F
:100E30002160E868216889088900014321602869E8
:100E400021680422914301432160E868002809D009
:100E5000602701280AD0022811D003281AD00026C2
:100E60003046F8BD286800F04BF9F9E7286800F033
:100E700047F9A8692168B94301432160F0E768692F
:100E80002168802291430143216020685104084376
:100E90002060E5E7A8692168B94301432160DFE7E5
:100EA00000340140000200400F49C96807221202C5
:100EB000114005231B02CA1A994210D007DC0029F1
:100EC00004D001229202914200D140087047FF3ABB
:100ED000013A06D0FF3A013AF8D10009704780087C
:100EE0007047C00870470000000200400F49C96801
:100EF000072212041140052212048B1A914210D0CD
:100F000007DC002904D001229204914200D140085C
:100F1000704701221204991A05D09142F8D10009B4
:100F2000704780087047C00870470000000200400A
:100F30000F49C9680722D20411400522D2048B1A36
:100F4000914210D007DC002904D0012252059142C1
:100F500000D1400870470122D204991A05D091426D
:100F6000F8D10009704780087047C008704700003A
:100F70000002004010B5194CA1690222114000295D
:100F800002D0022904D102E000F04AF800E014483F
:100F9000A169702211400A07120F19D109110B0023
:100FA00000F0F8FD08160507090B0F11151640088B
:100FB0000EE080080CE0C0080AE00C21FFF76BF996
:100FC00006E0000904E01821FFF765F900E0400998
:100FD000A1694902490E484310BD000000020040CB
:100FE00000127A000A48416A0320000401400948BF
:100FF000002908D001221204891A05D0891A05D0C7
:10100000914200D100117047034870470348704770
:101010004002004000093D0040420F0020A10700AF
:10102000084801690F20000401400748002906D044
:1010300001221204891A03D0914200D1034870475B
:10104000034870470002004000127A0000366E012B
:101050000024F40010B51049C9684907490F0B0076
:1010600000F098FD0805080A070D10161307FFF792
:10107000D7FF10BD094810BDFFF77CFF10BDFFF77B
:10108000B1FF10BD0120C00310BD00F009F810BD74
:101090007D20000210BD00000002004000127A0016
:1010A0000448C06808210840002801D00248704761
:1010B000024870470002004000879303006CDC0286
:1010C00002490A6B82430A637047000040020040F5
:1010D0000249CA6A0243CA62704700000002004027
:1010E00002490A6B02430A63704700004002004055
:1010F00002490A6B02430A63704700000002004085
:10110000034A116B03231B02994301431163704788
:1011100040020040034A11690F231B049943014315
:10112000116170470002004003494A69D209D201A7
:1011300002434A6170470000000200400168022239
:101140009143016070470168490849000160704798
:101150004168FF220132914341607047416849086C
:101160004900416070470000F8B50D460446714BD8
:101170009C4209D070498C4206D070498C4203D001
:101180006F498C4200D0FEE72968002906D001296A
:1011900004D0032902D0042900D0FEE7AA68C02A9F
:1011A00006D0002A04D0402A02D0802A00D0FEE7D0
:1011B000E1266A68F602B24200D9FEE72A69002AEF
:1011C00004D0102A02D0202A00D0FEE7EA68002AC4
:1011D00003D0D61FF93E00D0FEE76A69002A06D088
:1011E000022A04D0012A02D0032A00D0FEE7AA690D
:1011F000002A02D0012A00D0FEE74E4A514E944206
:1012000002D04D4A94422ED14A4A944205D1F26A04
:10121000920892000A43F26208E0474B9C4205D1D3
:10122000F26A0C239A4389000A43F2622968002972
:1012300006D001290BD003290CD004290FD10CE0D2
:10124000FFF708FFFFF730FEFFF750FE07E0FFF75C
:10125000E7FE04E0FFF7FEFE01E0FFF7C3FE69686A
:10126000FFF719F8471E3348844207D18015FFF76E
:101270003FFFF06AA1150843F0622BE02E4884423C
:1012800007D14015FFF734FFF06A61150843F0629B
:1012900020E02A4884420DD18014FFF729FFFFF790
:1012A000D9FEFFF701FEFFF743FE6968FEF7F3FF83
:1012B000471E0FE0224884420CD14014FFF718FF6C
:1012C000FFF7C8FEFFF7F0FDFFF732FE6968FEF793
:1012D000E2FF471E287DC00703D020680121084394
:1012E0002060287D800703D5206802210843206004
:1012F000A869012804D1206801214904084320601D
:10130000A069000C00043843A061E8682168FF224E
:101310000132914301432160A8682168C0229143B2
:1013200001432160286921683022914301432160F3
:101330000120F8BD001C01400020014000A0014038
:1013400000A4014040020040F0B54A490420486131
:1013500049480188491C01800020FF2200260132F3
:10136000464C95004649414309194919CB88002B41
:1013700025D05B1E9BB2CB80002B20D1012806D14B
:10138000404B5F6887435F605F6817435F6000287A
:1013900007D13D4B5F687F087F005F605F68174340
:1013A0005F60022807D1394B5F687F087F005F606C
:1013B0005F6817435F608E70CE700E710E81401CA7
:1013C000C0B20428CED3002001252D492B4E414325
:1013D0008C190121890261180B79002B44D05B1E06
:1013E000DBB20B71002B3FD1CB781B073BD501281B
:1013F0000ED1234E214B9E5D224B5F697F0A7F02F7
:1014000037435F615E6896435E605E682E435E6050
:1014100000280DD1194B1E781B4B5F697F0A7F0294
:1014200037435F615E6896435E605E682E435E6030
:1014300002280ED1164E114B9E5D144B5F697F0A38
:101440007F0237435F615E6896435E605E682E434D
:101450005E600D816378A6781B02DB1DF3180B809C
:101460007D23CB8000E00D71401CC0B20428ACD3BA
:10147000F0BD0000003401400200002020000020E8
:101480000A04000000A0014000200140001C0140AF
:101490001408000010B504210748826A0A438262DA
:1014A00006490A6B520A52020A630421826A8A437D
:1014B0008262FFF745FB10BD0002004000100140B2
:1014C00070477047002805DBC206D20E012191400B
:1014D000014A11607047000080E100E0002805DB50
:1014E000C106C90E0120884001490860704700000C
:1014F00080E100E0002805DBC106C90E012088401C
:10150000014908607047000000E100E010B50028C4
:1015100019DB1A4A03231B02D21883089B00D258F6
:101520008307DC0EFF23A3409A438B071B0E84071F
:10153000E40EA3401A43114B032424021B19840810
:10154000A4001A5118E00E4A03071B0F083B9B0822
:101550009B00D2588307DC0EFF23A3409A438B07DE
:101560001B0E8407E40EA3401A43054B0407240F07
:10157000083CA408A4001A5110BD000000E100E0DE
:101580001CED00E08307FF22DB0E9A408907090E5D
:101590009940002808DB830809489B001818036855
:1015A00093430B43036070470007000F083883081C
:1015B00004489B001818C36993430B43C3617047E9
:1015C00000E400E000ED00E010B5224B186822496D
:1015D000020C024202D14006400E48615868020CDB
:1015E0004240D2431206120E04D140061A4A400E5F
:1015F000403290620020886105225206CA608A6AE1
:1016000080231A438A62154AD3680F24A404234313
:10161000D3604862486A05221202104348627D2066
:101620000001401E0028FCD1AA208863C86801225E
:10163000D2061043C8600A480168012211430160C4
:101640004168FE2211404160032001218907486062
:1016500010BD000040FBFF1F00020040C00C004016
:1016600000A80140054AD168C02081430143D160F0
:1016700003480169012211430161704700020040E3
:1016800000E000E010B5184902464A4317495218D5
:101690000121890251180B890C88A34202D3022030
:1016A000C88010BD9A5C012804D0002809D0022807
:1016B0000ED013E00E484469640A64021443446186
:1016C0000CE00C484469640A64021443446105E078
:1016D000094C6069400A4002104360615B1C0B8149
:1016E0007D20C88010BD00000A04000020000020FA
:1016F00000A0014000200140001C014010B5114C29
:101700006068C005C00F002809D0A068C005C00FE0
:10171000002804D02069C1B20220FFF731F86068C8
:10172000C107C90F002909D0A068C107C90F002946
:1017300004D00220FFF7A6FF0120A0602046FEF79C
:10174000D9FE10BD001C014010B5114C6068C005E9
:10175000C00F002809D0A068C005C00F002804D021
:101760002069C1B20020FFF70BF86068C107C90FFC
:10177000002909D0A068C107C90F002904D00020A2
:10178000FFF780FF0120A0602046FEF7B3FE10BDEA
:101790000020014010B5114C6068C005C00F002842
:1017A00009D0A068C005C00F002804D02069C1B2CC
:1017B0000120FEF7E5FF6068C107C90F002909D0C5
:1017C000A068C107C90F002904D00120FFF75AFF04
:1017D0000120A0602046FEF78DFE10BD00A0014054
:1017E00030B50C4C0C4D0EE02A460378401C63616A
:1017F00003E0521E92B2002A09D0A368DB07DB0F78
:10180000002BF6D0491E0029EED1012030BD00206A
:1018100030BD000000200140FF1F0000F0B5FFB008
:1018200086B0054664482946414364480C180120A7
:10183000800220188490C178FB2001408498C170F8
:101840006078A1780002001D081886B22146324651
:101850000020FEF72BFE80B2A15DA219527809028A
:10186000891881427ED1217980AA117260795072E3
:10187000A279677A12061743E279237A12041B02CF
:101880001A4317430026152975D14B4901224D43B0
:101890004A49520269180A31082827D006DC012873
:1018A0000CD0022817D0042865D119E0FD282CD0CF
:1018B0004349FE285AD0FF285DD15AE00025FEF7A3
:1018C000E9FE2846203080B2FEF7A8FE6D1CADB2BE
:1018D000E02DF4D34FE0F801000CFEF79FFE4AE044
:1018E000164608463946FEF775FC44E03548FEF7D3
:1018F00071FC802233493846FEF7AAFE00283AD010
:10190000207940210843207135E00121490201A8D6
:10191000FEF7BFFC0626A17A607B09060843E17A40
:10192000227B090412021143084381900020002504
:1019300013E0FEF793FD80B28390012279195202E1
:1019400001A8FEF747FC0122520201A98398FEF785
:10195000ADFD80B2FF35FF35023581998D42E8D368
:10196000010A00E025E0A173E07304E000200870A4
:1019700001E0552008702079802108432071B61DB0
:10198000300A6070F1B2A1700002001D081885B223
:1019900021462A460020FEF789FD010A615561199A
:1019A00048701620887084980821C078084384996C
:1019B000C8707FB006B0F0BD0A040000200000200F
:1019C000000000202C04002010B503460022012B4B
:1019D00009D1124C204600F027F8012803D1AA2291
:1019E000204600F034F8002B09D10D4C204600F0C1
:1019F0001BF8012803D1AA22204600F028F8022B68
:101A000009D1084B184600F00FF8012803D1AA228B
:101A1000184600F01CF8104610BD000000A0014060
:101A200000200140001C014081684903C90F0029C2
:101A300009D181688903C90F002904D18068C003D6
:101A4000C00F002801D001207047002070470121FD
:101A500089048160491081604910816070470000ED
:101A600070B58CB00446142107A8FEF712FC1C21A7
:101A70006846FEF70EFC4248032320185B0300254E
:101A8000022600283CD071023E4A401A4ED04B013B
:101A9000C01A60D0884214D1032007900896099597
:101AA0000A950B95374807A98030FFF78BF80D2072
:101AB000FFF714FD02210D20FFF764FD0D20FFF755
:101AC00019FD4B20C0010190402002900395049520
:101AD0000595069569462046FFF746FB6068400875
:101AE000400060606068FF21013108436060206849
:101AF0000121084320602068304320600CB070BD95
:101B00000793089609950A950B951E4807A9403832
:101B1000FFF758F800950A20FFF7E0FC02210A20A1
:101B2000FFF730FD0A20FFF7E5FCCAE707930896A8
:101B300009950A950B9507A91046FFF743F80095FC
:101B40000B20FFF7CBFC02210B20FFF71BFD0B2026
:101B5000FFF7D0FCB5E70C200790089609950A9589
:101B60000B9507A91046FFF72DF80C20FFF7B6FCE0
:101B700002210C20FFF706FD0C20FFF7BBFCA0E7BD
:101B800000E4FEBF400C004010B5FEF7CBFCFFF7B1
:101B900069FD10BD30B47446641E2578641CAB42E8
:101BA00000D21D46635D5B00E31830BC184700009F
:101BB0001CB50026002000900190FFF76BFCFFF79A
:101BC00080FCFFF77DFCFEF76FFDFFF7DDFF0020D7
:101BD000504908705049087050490880FEF770FD60
:101BE0004F48FFF73DFFFEF785FD62B64D491723CD
:101BF000DB021A6858689B688B600A604860084678
:101C00000078552819D108464078502815D15D2113
:101C1000490203C90191009068468178C0780002AA
:101C200009186846007900040918684640790006DA
:101C30000E1866203849087003E010213AA0FFF71B
:101C4000CFFD15213D480068FFF7CAFD00BFFEF734
:101C500021FD3B48C07804210840002809D03148C4
:101C60000078552805D00020FFF7D8FDFEF712FDBB
:101C7000EDE72948007866282FD1BB273F020E21C7
:101C800030A0FFF7ADFD002414E02146203188B2DA
:101C9000FEF7C4FC6202D119620201239B03D01833
:101CA0005A11FEF7D5FC01212AA0FFF799FDFEF796
:101CB000F1FC641C700AA042E7D81A480021018098
:101CC0005C20FEF7ABFC0C2216491720C002FEF781
:101CD000BFFC002010490870B9E70F4800780028C1
:101CE000B5D10E480088FA28B1DB0A4800780028F0
:101CF000ADD10C2118A0FFF773FDFEF741FC0120C8
:101D0000800345680146086880F3088800BFA8473B
:101D10009DE70000040000200000002002000020D9
:101D200000200140140000204E6565646E27742079
:101D30007570646174610D0A0000000008000020E5
:101D400020040020757067726164696E6720776196
:101D5000697400002E00000052756E20746F2041DF
:101D60005050210D0A00000052756E20746F204102
:101D700050500D0A00000000426F6F746C6F616478
:101D80002069732052756E696E670D0A00000000AD
:101D9000B01D00000000002014000000040100003D
:101DA000C41D0000140000207C160000200100006B
:101DB0000000000000000000781D0000681D000009
:041DC000000000001F
:10400000D81B00207D42000009A500008742000067
:1040100000000000000000000000000000000000A0
:1040200000000000000000000000000089420000C5
:1040300000000000000000008B4200008D420000E4
:104040008F420000CDAF000031AD00008F42000074
:10405000618E0000F56D00008F4200008F4200006D
:104060008F4200008F42000039B500008DB500007E
:104070008F4200008F4200008F4200008F420000FC
:10408000C5A000008F4200008F4200008F42000058
:1040900091A000008F4200008F4200008F4200007C
:1040A000517600008F4200008F4200008F420000D6
:1040B0008F4200008F420000BD8100009DA00000E3
:1040C00000F002F800F0AFF80CA030C8083824184F
:1040D0002D18A246671EAB4654465D46AC4201D140
:1040E00000F0A1F87E460F3E0FCCB64601263342C3
:1040F00000D0FB1AA246AB46334318479481000018
:10410000B48100000023002400250026103A01D3CA
:1041100078C1FBD8520700D330C100D50B6070477F
:1041200010B56E2902D101F09EFA10BD702902D19E
:1041300001F0F5FB10BD662902D107F0D9FF10BDD3
:10414000652902D107F0D4FF10BD672902D107F01D
:10415000CFFF10BD612902D107F0D2FF10BD036867
:104160001B0A01D380231943692902D100F0AAF95F
:1041700010BD642902D100F0A5F910BD752902D146
:1041800000F0A0F910BD6F2902D101F073FB10BD42
:10419000782902D101F0B0FB10BDE92902D101F06C
:1041A0000FFB10BDE42902D101F00AFB10BDF52977
:1041B00002D101F005FB10BDEF2902D101F066FB31
:1041C00010BDF82902D101F0A5FB10BD0368DB0981
:1041D00001D380231943632902D101F087FA10BD6E
:1041E000732902D101F08AFA10BDE32902D101F04E
:1041F000CAFF10BDF32902D101F0CDFF10BD002090
:1042000010BD1FB502F0D4F904000020002107F012
:1042100059FF401C60600020002107F03DFFE06076
:104220001FBD10B510BD02F09BF91146FFF7E9FF65
:1042300007F082FD02F030FD03B4FFF7F2FF03BC8C
:1042400002F07AFD70B505460C46164602E00FCC2A
:104250000FC5103E102EFAD2082E02D303CC03C590
:10426000083E042E07D301CC01C5361F03E0217898
:104270002970641C6D1C761EF9D270BD07488047FA
:1042800007480047FEE7FEE7FEE7FEE7FEE7FEE73A
:1042900004480549054A064B7047000095B40000E4
:1042A000C1400000D80B0020D81B0020D8130020EC
:1042B000D81300204343514330B55C18010C130C54
:1042C0000D4692B25D4380B251432C1905465543C9
:1042D0000A0C09044D1962415843010C00044019AD
:1042E000514130BDFEB5054610460C46184373D00B
:1042F000AE468C460020AD1A01469C4167D3664607
:10430000002701243D46B61A9D4102D313463A4682
:104310002124654676462F04360C3E432D0CB61AF2
:104320009D4104D3150C1B042B4312041034654625
:1043300076462F06360A3E432D0AB61A9D4104D30F
:10434000150E1B022B4312020834654676462F07D2
:1043500036093E432D09B61A9D4104D3150F1B01A2
:104360002B431201241D65467646AF07B6083E432F
:10437000AD08B61A9D4104D3950F9B002B439200C4
:10438000A41C65467646EF0776083E436D08B61ACC
:104390009D411AD392185B41641C16E000187646C2
:1043A00065464941B71A9D410191009009D3604685
:1043B000B11A98418E468446009801990025401C08
:1043C0006941DD0752082A435B08641EE6D5724640
:1043D000634603B0F0BDFFE700200146C046C0467B
:1043E0002A462346F5E700007CB51D4616460C001C
:1043F000009001D00019401E084B7B442A466946B4
:104400000190304601F047F9002C054603D069467B
:10441000002001F053F928467CBD0000C9120000BD
:104420000FB41CB5084B06AA7B446946009005985A
:1044300001F031F904460020694601F03FF92046B9
:104440001CBC08BC04B018479112000009684A055A
:1044500001D540B27047C905FCD500B27047096864
:104460004A0501D5C0B27047C905FCD580B2704776
:1044700070B50C460546012A05D02878800600D57F
:10448000EA69002302E0012305E05B1C934202D2AB
:10449000E05C0028F9D1A869E618C01AA861286A6A
:1044A000C0182862284601F05FF804E06A682078A6
:1044B000A968641C9047B442F8D3284601F06AF812
:1044C00070BD0000F7B5002575291068009914A685
:1044D00011D0FFF7BBFF002802DA404211A608E026
:1044E000009909688A0701D50FA602E0490704D59B
:1044F0000EA6012501E0FFF7B2FF009F002424373C
:1045000004E001F063FA30313955641C0028F8D119
:104510002B4632462146009801F04DF8FEBD0000C2
:10452000000000002D0000002B0000002000000013
:10453000F3B50446002081B020622046E168884738
:10454000002872D0252802D06268A168ABE0594FDC
:1045500000267F442046E16888472028054608DB7E
:10456000312D06D2781920380078002801D0064372
:10457000F0E7B00701D5042086430020E06107463C
:10458000A0612A2D0AD0284607F0FAFA002827D081
:10459000B8000019303D0090856119E00298BA001A
:1045A000121902C8916102902046E1688847012FE4
:1045B000054617D1E06900281FDA202086431CE059
:1045C00000980A2180694843009940193038886171
:1045D0002046E1688847054607F0D2FA0028EFD167
:1045E000012F0AD02E2D08D12046E16888470546C4
:1045F000202006437F1C022FC3DBA069002803DABA
:104600004042A06101200643F00701D010208643FC
:104610006C2D0BD0682D09D04C2D3CD06A2D38D094
:10462000742D38D07A2D36D016E040E0E1682F4660
:1046300020468847B842054609D16C2F29D0012071
:104640008002E168064320468847054604E06C2F57
:104650001DD0FF2001300643002D28D028464138C8
:10466000192803D80120C0020643203520462660C1
:104670002946029A1646FFF753FD002810D001285C
:104680000BD0F61DF008C0000830029055E740201E
:10469000E1E78020D5E70020D3E7361D02964CE7FE
:1046A00062682846A1689047206A401C44E7206A57
:1046B000FEBD0000BA7B00000FB400B58DB010A99C
:1046C00009900B900020C04300910A9000200C90AC
:1046D000074878440690074878446A4607900F993F
:1046E00009A801F03FF90DB008BC04B0184700005C
:1046F000B3120000CD120000FFB51D460027FF4396
:1047000083B05C68002001909E68A96904987F1CB2
:1047100088470090296A88470028F6D10098401CF5
:104720000CD0032040028443002E19DD600614D50E
:1047300000982B2809D02D280FD103E00020C0437A
:1047400007B0F0BD012080020443A96904987F1CD2
:104750008847761E002E009002DD0098302803D096
:104760000598002825D035E00120A96940020443BE
:10477000761E04987F1C8847002E009003DD782861
:1047800005D0582803D00598002810D022E00598BD
:10479000002801D010281DD10120A96940028443BE
:1047A000761E04987F1C88470090102002E00820A5
:1047B00000E00A2005900DE00121059A49020C4312
:1047C0000199761E514308180190A96904987F1C2D
:1047D00088470090002E05DD0599009801F0ACF89F
:1047E0000028E9DAE96904988847A00502D4012085
:1047F000C043A5E7E00722D1600611D56005019806
:1048000000D5404229680A1D2A600968220501D5A1
:10481000087014E0220701D5088010E008600EE05F
:104820002868011D29600068210502D501990170E1
:1048300005E02107019901D5018000E001603846BB
:104840007EE7FFB5144683B0002000260090506834
:10485000019091699768049888470C9905460698D5
:10486000084305D009E0A1690498761C88470546ED
:10487000216A284688470028F5D1681C03D0019892
:10488000C00704D017E00020C04307B0F0BD206887
:10489000011D2160006800900DE00198C00704D15F
:1048A000009805700098401C0090A169761C04983F
:1048B0007F1E88470546002F1CDD681C1AD006980D
:1048C00000280FD0E817C00E4019411140098A0096
:1048D0000699400151182A1A0968012090400142A6
:1048E000DBD107E00C980028D7D12846216A8847F9
:1048F0000028D2D0E169049888470C98002807D195
:10490000002E05DD0198C00702D10098002101703A
:10491000A068B84204DD0C98002804D0002F02D013
:104920000120C043B1E73046AFE7034610B50B4363
:104930009B070FD1042A0DD308C810C9121FA34228
:10494000F8D018BA21BA884201D9012010BD002040
:10495000C04310BD002A03D0D30703D0521C07E088
:10496000002010BD03780C78401C491C1B1B07D18C
:1049700003780C78401C491C1B1B01D1921EF1D1FD
:10498000184610BD30B5441C03E00178401C0029D6
:104990000DD08107F9D10B4BDD0104C8D11A914329
:1049A0002940FAD0001B0A0603D0C01E30BD001BF0
:1049B00030BD0A0401D0801E30BD0902FCD0401E6B
:1049C00030BD000001010101F8B5042A2CD3830792
:1049D00012D00B78491C0370401C521E83070BD069
:1049E0000B78491C0370401C521E830704D00B78BF
:1049F000491C0370401C521E8B079B0F05D0C91A1F
:104A0000DF002023DE1B08C90AE0FFF71BFCF8BD0E
:104A10001D4608C9FD401C46B4402C4310C0121F5F
:104A2000042AF5D2F308C91A521EF0D40B78491C97
:104A30000370401C521EEAD40B78491C0370401CC2
:104A4000012AE4D409780170F8BD01E004C0091F0F
:104A50000429FBD28B0701D50280801CC90700D036
:104A60000270704700290BD0C30702D00270401CAF
:104A7000491E022904D3830702D50280801C891EA7
:104A8000E3E70022EEE70022DFE70378C278194669
:104A9000437812061B0219438378C0781B0419431C
:104AA00011430902090A000608437047020A087008
:104AB0004A70020C8A70020ECA7070470022030905
:104AC0008B422CD3030A8B4211D300239C464EE029
:104AD00003460B433CD4002243088B4231D30309E5
:104AE0008B421CD3030A8B4201D394463FE0C30997
:104AF0008B4201D3CB01C01A524183098B4201D3AF
:104B00008B01C01A524143098B4201D34B01C01A99
:104B1000524103098B4201D30B01C01A5241C30811
:104B20008B4201D3CB00C01A524183088B4201D380
:104B30008B00C01A524143088B4201D34B00C01A6C
:104B40005241411A00D201465241104670475DE081
:104B5000CA0F00D04942031000D340425340002204
:104B60009C4603098B422DD3030A8B4212D3FC22AD
:104B7000890112BA030A8B420CD3890192118B422C
:104B800008D3890192118B4204D389013AD0921142
:104B900000E08909C3098B4201D3CB01C01A5241FD
:104BA00083098B4201D38B01C01A524143098B42C6
:104BB00001D34B01C01A524103098B4201D30B01AF
:104BC000C01A5241C3088B4201D3CB00C01A5241D4
:104BD00083088B4201D38B00C01A5241D9D24308BB
:104BE0008B4201D34B00C01A5241411A00D20146F8
:104BF000634652415B10104601D34042002B00D562
:104C00004942704763465B1000D3404201B5002023
:104C1000C046C04602BD7047704770470246C80F85
:104C2000C00781434B0030B54B405B009B0D20D04B
:104C30001923DB06C91801231B05994220DB032435
:104C4000A40704251346AB400BD3002B04D1EB067D
:104C500013409B00E34204D401246407002312198B
:104C60005941FF231B0599420BD2C9000143500F44
:104C700009E0CB0204D501430803024305D00548EF
:104C800030BDFF21C905084330BD0846072109058D
:104C9000884330BD0000C07FF0B50C46871A9C41A8
:104CA0000D46861A9D4103D2C01BA141D219634112
:104CB0000D0D1F0DC94EEC1BAE435CD07F057F0D63
:104CC0000026002F51D02D05AC46A943DD0201235B
:104CD000ED0A1B051D4320231B1B24D41746E74068
:104CE000381871412F46E740CC199D4028183146AD
:104CF00061410C0D27D161449A4013D50023401C1B
:104D0000594152000ED14008400001224B0052058B
:104D1000D34207D305204007C14201D5B04900E086
:104D2000B0493046F0BD6B00002A00D001229A182D
:104D30001F23203C1B1B01D5002302E0E54028185F
:104D400071410C0DD7D0012424050919C407CD07E2
:104D500040084908E40F28436144002CD5D00024C2
:104D6000401C61419A40D0D1CDE76A05520DD9D19E
:104D7000C90FC907D5E79C4D4E00002801D001247A
:104D800000E0002434195F00002A01D0012600E071
:104D90000026BE19954FAC420CD8AE420AD8B44298
:104DA00006D001256D05EC42BCD010461946F0BD79
:104DB0009942FCD000203946F0BDF0B51FB40C4636
:104DC0000F46811A9F412546861A9D4106D201252C
:104DD000ED076F40401ABC4152187B41210D1E0D5A
:104DE0008D1BAC467D4D8D437ED075056D0D7CD001
:104DF0000D05AE46AC431B031B0B794D52429D4142
:104E0000202366469B1B14D31746F740381800260C
:104E10000090744160462F460741E41900989D4078
:104E20002818664116D4714671189A4025D5012379
:104E300020E093182A466A415200002B00D0521CF1
:104E40001E23203E9B1B002B61DD3541EE172818E9
:104E50006641E8D5001876415B1C9A4000D3401C9F
:104E60004B05F3181524E34010D3002B52D07146A4
:104E70007118D30FC01802D3491C05B0F0BD01232F
:104E8000DB079A42F9D140084000F6E701225205BB
:104E9000B21801D1002853D00123CC0ADB02994378
:104EA000891E002A08D1020C03D0020C000410391C
:104EB00002E00246002020390023550B05D11202E2
:104EC0000823550B01D152010D23550C01D11201BC
:104ED0001B1DD50C01D192009B1C150D01D1520058
:104EE0005B1C2025EE1A01E02CE022E00546F5408F
:104EF00015439840CA1AE10769181305C918002A12
:104F0000BBDA032040070818C10FC9070FE071463C
:104F10006118B2E7F10740080843711071444A0074
:104F20000CD001235B059A42A7D2C90FC907002004
:104F3000A3E74905490D26D1002001E00028F4D15E
:104F400000219AE7284D6600002801D0012100E0E9
:104F5000002171185F00002A01D0012600E0002620
:104F6000BE19224FA94210D8AE420ED8B14208D085
:104F700001256D05E94206D01946A80241401046B8
:104F80007BE79C4201D0214677E70020394674E751
:104F900010B50C465C4005D50124E4076340FFF7DB
:104FA0000CFF10BDFFF778FE10BD30B40C465C401E
:104FB00004D50124E407634030BC6DE630BCFCE658
:104FC00070B50124E40761400D465D4002D4FFF74F
:104FD00063FE70BD6340FFF7F0FE70BDFF07000089
:104FE0000000F0FF0000F07F0000E0FF0000F87F0D
:104FF000F0B5F94D0C091E092C402E402F468BB000
:10500000A7437DD0B543FCD0002E7AD0002CFCD035
:105010000D465D40ED0F2543AC1BFF25AD04641923
:105020000894C502440DC9022143500DDC0204431B
:105030000120C00701430443D2020191200C110C4E
:1050400000958C46010423468B430A91614609046E
:10505000E24D8A430991010A7D4449198039097852
:1050600005464D4301266D18F605751B6943C90CAD
:10507000640B891C4C436418B5012C1B250C2E04B1
:10508000B4434C434D43210C691889090591009D97
:10509000E90701D00121C90704912C46019967084D
:1050A000CD072F434C08059DE10B4D432D0C2946A0
:1050B0006646754302950D4645432E46029D7D1B6F
:1050C000B44100950D465D4301942C0C2F040D4610
:1050D0005543AE462D0C3D43029503947546049C02
:1050E0002D04641B049406D2029C039D641C0026BC
:1050F00075410395029401AC70CC009F7D1B01E0CB
:105100003EE162E1B44109040095079101940599DB
:10511000A4086143090C0C464443650BE7040C46A4
:1051200066467443A646640B3C430395029474465A
:10513000049DE4042C1B049406D2029C039D641C71
:10514000002675410395029401AC70CC009F7D1B35
:10515000B44101940C465C430095650FE7000C4692
:105160005443A646640F3C43039502947446049D41
:10517000E4002C1B049406D2029C039D641C0026B0
:1051800075410395029401AC70CC009F7D1BB44126
:10519000AE09AF06049DC900AD092F43049DA406C6
:1051A000AD060495079D344369180791059DE10BF1
:1051B0004D432D0C29466646754302950D464543E1
:1051C0002E46029D7D1BB44100950D465D43019422
:1051D0002C0C2F040D465543AE462D0C3D43029535
:1051E00003947546049C2D04641B049406D2029C0F
:1051F000039D641C002675410395029401AC70CC9C
:10520000009F7D1BB44101948C050694079C890A7C
:10521000611800950791019C0599A4086143090C48
:105220000D464543680BEF040D46644665436C0B21
:105230003C43049FED047D1BAC4602D20025641C58
:105240006841009E019D371B8541084658430195E2
:105250000C46460FC5005443600F28436546E400E2
:105260002C1B02D20025401C6E41019D3F1AB54106
:105270002846BD09800628438446A009BF064E0281
:105280000699A40676180743079D002068410A99ED
:10529000079019430020099B00906046FF191343B3
:1052A0004041E20F64003A43A4460446D71A8C41B9
:1052B000A04203D90120009020463A46C70F941817
:1052C00040416246D20F2243644664000494009C2D
:1052D000BE466400D71AA446044602978C4177461E
:1052E000002F01D1A04204D96046401C8446029A96
:1052F0002046C40FA64694184041049A0546D20F92
:10530000224364466400D31A8D417146002901D1BD
:10531000A84202D928461A46641C104301220028DC
:1053200000D0164361020020079B891904465C41A6
:105330000223002C02DB491813466441089DCE0A63
:105340002D145D194B056705E10A2C050D19089907
:105350003E43C9076940002B08D0934006D3002282
:10536000761C5141002B01D1760876001C4A002D95
:1053700043DB154241D0AA433FD030460BB0F0BDCD
:1053800006180D464D41174C7642AC411AD395187C
:105390001C465C41134A6D42A24113D301225205BF
:1053A0004C00D4420AD15C00D4420BD04B4002D511
:1053B00092021143E2E749004908DFE75940C90F6B
:1053C000C90718E000200849D8E7054801420DD177
:1053D0000342F7D0F2E700000000FF07C5700000AD
:1053E0000000F07F0000E0FF0000F87F1148594006
:1053F0000143C01241400020C0E70123089A9B06E8
:105400009A4205DC032252078918C90FC907B5E77C
:10541000052252078918074A1143D2125140ADE7BD
:1054200070B515461C4602460B4628462146FFF736
:10543000DFFD70BDFFFFFF7F1F22030C02D10F2293
:10544000000402D0030E03D004E0002001467047A0
:105450000002083A030F01D10001121F830F01D18E
:105460008000921E002801DB4000521E12055118D8
:105470004205C012411810467047C10FC90700D03D
:105480004042012292071143D6E701218907D3E761
:1054900010B50B1E01D0202301E0011E2BD00C0CF7
:1054A00001D10904103B0C0E01D10902083B0C0F7D
:1054B00001D109011B1F8C0F01D189009B1E0029FE
:1054C00001DB49005B1E0446DC4021431C05A41897
:1054D0002022D21A90404B05C20AC90A1A43091960
:1054E000830501D1430818401623984002D30020B9
:1054F000521C4141104610BDCA0FD20703D00B46C3
:10550000002140429941024B1A43C1E7004ABFE7DC
:105510000000D0410121C9050123411842001B06AA
:10552000D3185B0E0AD0C1100722D2068918400793
:105530005242D14201D5520089187047090208D55C
:105540000146002A03D0C10FC9070020704710464A
:105550007047420202D00020024970470721090526
:105560000143F4E70000F87F70B5044685690068E0
:10557000C10601D5302600E02026C00707D070BD47
:1055800062683046A1689047206A401C20626D1E08
:10559000F6D570BD70B5044685690078C00707D19F
:1055A00070BD6268A16820209047206A401C20627C
:1055B0006D1EF6D570BDFFB504460D4681B0243092
:1055C00000902168880604D51022E069914321608B
:1055D00000E00120A84201DD471B00E000270498FD
:1055E000A1697A191018081AA0612078C00602D49F
:1055F0002046FFF7B9FF002608E003986268A1681B
:10560000805D9047206A401C761C20620498864288
:10561000F3DB2078C0060AD52046FFF7A5FF06E099
:105620006268A16830209047206A401C206238469A
:105630007F1E0028F4DC07E000986268A168405DE6
:105640009047206A401C206228466D1E0028F3DC2B
:105650002046FFF79FFF2078000602D5022005B004
:10566000F0BD0120FBE711680268006A530501D50F
:10567000087009E0D30501D5088005E0130602D5BE
:10568000C21705C100E008600120704701694A1C8B
:1056900002610878704700B58FB002910021059132
:1056A0000549019379440391114604906846FEF739
:1056B0003FFF0FB000BD0000E5FFFFFF0A6810705C
:1056C000521C0A6070470CC908399A4202D2531C16
:1056D0000B601070704710B54369002B02D0C046B4
:1056E000C04601E0FEF7C4FE012010BD127801465D
:1056F00024310A7000224A700122ECE7116800226E
:10570000D243E8E7F7B50446154686B02B487844FF
:10571000002703C83E460090019111E007986A46B1
:105720007100415A02A800F0FBFE411C07D021780D
:10573000890603D5E269391891420ED83F18761CC4
:105740002078800602D5E069B84206DDAE42E5DB8E
:1057500007987100405A0028E0D1A069C01BA061E1
:105760002046FFF701FF154878445A3803C80090D7
:105770000020019116E041006A460798415A02A8AC
:1057800000F0CEFE0590401C0AD0002505E06268BE
:1057900002A8A168405D90476D1C05988542F6D32C
:1057A0000498401CB0420490E5DB206AC0192062D6
:1057B0002046FFF7EFFE09B0F0BD0000926A00003E
:1057C000F7B5D21D0025D20815A6D200F52905CAC5
:1057D00011D0002A05DA00214042914111A60A4663
:1057E00008E0009909688B0701D50FA602E0490778
:1057F00001D50EA601251146009F0024243704E0A0
:1058000000F0F8F830323A55641C02460A43F7D1EA
:105810002B46324621460098FFF7CDFEFEBD000024
:10582000000000002D0000002B0000002000000000
:1058300070B504460021243408E05507D2086D0FE6
:10584000303565545D072A43DB08491C15461D4366
:10585000F3D10468002310A2250708D5A40601D4BB
:10586000002904D0C46901230CA2641EC461FFF79F
:10587000A2FE70BD10B5044621461068FEF7EFFD8C
:10588000002302462046FFF7D3FF10BDD21DD108EA
:10589000C9000CC9CCE70000000000003000000087
:1058A000F8B50F460188090502D5224C7C4402E078
:1058B000204C7C440E3405460021243508E01607B0
:1058C0001209360FA65D6E541E0732431B09491C90
:1058D00016461E43F3D1224604780023240705D53B
:1058E000702F06D0002901D002231132FFF763FE8A
:1058F000F8BD01231032F9E770B504460D46214684
:105900001068FEF7ACFD0023024629462046FFF74B
:10591000C7FF70BDD21DD308DB000CCBC0E730B48D
:10592000036820241268234303600823C36130BC4A
:105930000023B5E7FC6800003A2800D23038202365
:1059400002469A43412A01D310463738884201D390
:105950000020C043704700000268511813780160AE
:105960001846704710B5D160054979445161054921
:105970007944116200211161114600F011FC10BD43
:10598000EBFFFFFFFB0000004268002A08D001681F
:105990000B78491C002B03D0521E06C018467047D6
:1059A0000121C160881E70474268002A0BD0C3687D
:1059B0000168002B07D183688B4204D0491E521C1A
:1059C00006C0002070470020C04370470146800891
:1059D000081A02091018020A1018020C1018C00840
:1059E000820012185200891A01E0401C0A390A2963
:1059F000FBD270470B4670B5024689078008084302
:105A000019469D08141AA9412509080705430809E4
:105A10002C194841250A01060D43010A2C19414160
:105A2000200C0D0428430D0C00194D410021401994
:105A30004D41C00869070843E908840F8D002543DC
:105A4000840024184D4124196D41121BAB4107E01D
:105A50000925ED432C11521963410024401C61417A
:105A60001C460A250026551BB441F1D270BD10B565
:105A7000044600F095FD0068005DC007C00F10BD32
:105A80007047FFB50C461E468FB003CA08900991B7
:105A90004F007D0D00D16D1E002108460020C0463C
:105AA0000321099A89050840002A03DA8200801838
:105AB00040080840800D01280A9002DD0020C04304
:105AC0000A90089807430DD0F048F1492818484338
:105AD0000714189800281DD07542291E1DDD0A984C
:105AE00042421BE01898012802D00020302104E037
:105AF0000020F24305E02154401CB042FBDB30465D
:105B00000022189B002121540F998B600A60486085
:105B100013B0F0BDBD1B6D1CDFE70A9A002900DA47
:105B200069420BA800F08CFD0BAB07CB03AB07C39E
:105B30000899099800F0F0FD6B4607C30146D54867
:105B40000918002D00910BDDD24903980A9A4942A9
:105B50004018002303A90390684601F04DF808E0BF
:105B600003990A9A0023081803A90390684600F0D5
:105B7000EDFF6B4607C30004000C03D00020C043B8
:105B8000410800E01046189A002A03D00022009233
:105B900015461EE0751E05D4FFF72CFF3032625506
:105BA0006D1EF9D501220843079602D000227F1C02
:105BB00004E02078302801D100227F1E002A0697B9
:105BC00087D01EE0112D07DAFFF714FF303262553F
:105BD0006D1C02460A43F5D1084303D00098002803
:105BE00019D00EE00021681E05E0235C625C63545E
:105BF0002254401E491C8142F7DBA81B401E07951A
:105C00000690079A18990020A0540F98079B069AAF
:105C100081600CC07CE711260020189059E7D21D46
:105C2000F0B50D460446D10893B0C90003C90C90E5
:105C30000D9105F08FFF02460D98C00F01D02D2069
:105C400007E02068810701D52B2002E04007C00F44
:105C50004001032A0F9001D0072A05DB034629469D
:105C6000204600F0A9FC0EE12078800601D5E76906
:105C700000E006272846652D04D0662814D0672D3D
:105C800069D12DE00020112F009001DB112300E0ED
:105C90007B1C0CAA03A910A8FFF7F3FE119900269C
:105CA00010987D1C0E9142E001203B460CAAC007D3
:105CB0000B900120009003A910A8FFF7E2FE119DB0
:105CC00012981099002600280E9501D1781C0D1805
:105CD000781B02D446427D1C761EE81B00903AE0F9
:105CE000012F00DA01270020112F009001DD112380
:105CF00000E03B460CAA03A910A8FFF7C2FE1199C9
:105D00003D46109800260E91217809070BD40E9974
:105D1000A94200DA0D4603A9012D04DD4A19203AF3
:105D2000D27F302A06D0B84201DA011D04DA0121FF
:105D300000910FE06D1EEFE7002802DC86192D1A96
:105D400003E0411CA94200DD0D46801B401C009071
:105D50000120C0070B902078000705D40098A842C6
:105D600002DB0020C043009069460020C8720B98F7
:105D7000012102AF0337C907884225D002201090C5
:105D80002B2011900B9800280BDA40420B902D200D
:105D9000119006E00B98FFF719FE30317F1E0B9033
:105DA00039701099481E00291090F3DC0B980028D8
:105DB000F0D111987F1E38702088000501D545204C
:105DC00000E065207F1E387001A8C01BC01D0B902D
:105DD0000F98002800D0012041190098C017091819
:105DE0000B980818A169081A401EA0612078C00607
:105DF00002D42046FFF7B8FB0F98002805D0626850
:105E0000A1689047206A401C20622078C00625D5F2
:105E10002046FFF7A9FB21E0002E07DB0E98B042D9
:105E200004DD03A86268805DA16802E06268A16881
:105E300030209047206A761C401C20620098401E4B
:105E4000002800900AD100F0B3FBC06862680168C6
:105E5000405CA1689047206A401C206228466D1E65
:105E60000028D9DC07E062683878A1687F1C904779
:105E7000206A401C20620B99481E00290B90F2DC1E
:105E80002046FFF787FB032042E6000001FCFFFFEE
:105E9000104D0000E1DFFFFFD21DF0B504460D46B6
:105EA000D0088DB0C000466807683146384605F016
:105EB00051FE0246F00F01D02D2307E02068810734
:105EC00001D52B2302E04007C00F43016846002B99
:105ED000037001D0012000E00020032A0A9001D0C5
:105EE000072A04DB2946204600F066FB2DE12078D6
:105EF000800601D40D2500E0E5697000400D0D2DF0
:105F000001904BDA300D00210B9008460020C0466E
:105F1000032189050840002E05DA82008018C20F8F
:105F20001018401008408015012801DD0020C043F2
:105F3000A9000023182906D39C460A460123183AD3
:105F40001B07D34003E001221205CA4094460C31DE
:105F5000202902D33A46203900E032468A40002800
:105F600002DD002A06D119E0002817D10121C90756
:105F70008A4213D3194663467F185E41002806D132
:105F80000120C007824202D1084687439E430B98F6
:105F9000310D814202D00198401C019020880005FB
:105FA00002D57149794402E06F49794419396B4649
:105FB0000A9830221A540A980A7C401C1A54401C31
:105FC0000A900198002801DC302000E0312018728E
:105FD000019A0120002A02D0644BD21804E072001A
:105FE0003A4302D0614A521C0192002D02DC227811
:105FF000120703D56A462E205072022000228646E0
:1060000094460CE032033601120F6D1E8B5C02AA1F
:1060100013546246521C401C9446052A01DA002D96
:10602000F0DC002202AE08E03B0F3F01CB5C521CCB
:106030006D1E3354401C082A01DA002DF4DC23685D
:106040009A0601D511E0401E704504DD3218203A51
:10605000D27F302AF7D0002807DD3218203AD27FCD
:106060002E2A02D11A0700D4401E002D03DD3E2245
:106070003254401C6D1E497C31540199401C00294A
:1060800006DA2D21471C315401984042019003E06B
:106090002B21471C315401987D21C900884206DB21
:1060A000FEF716FD3030F0557F1C019101E06428A9
:1060B00008DB01986421FEF70BFD3030F0557F1CA2
:1060C000019101E00A2806DB01980A21FEF700FD94
:1060D0003030F0557F1C01980A21FEF7F9FC303171
:1060E000F1550A98A1697F1C7A191018081AA06145
:1060F0002078C00602D42046FFF736FA216A6E46A1
:106100000A980818206204E062683078A168761C5A
:1061100090470A98401E0A90401CF5D12078C0068E
:1061200002D52046FFF720FA02AE09E03078761C4F
:106130003E280DD06268A1689047206A401C20620A
:106140007F1EF3D22046FFF725FA0DB00320F0BDE5
:10615000206A4019206203E06268A16830209047FD
:106160006D1EEDD3F8E700003F62000001FCFFFF69
:1061700010B54369002B02D0C046C04601E0FFF7CE
:10618000C1FA012010BD1288014624318284002208
:10619000C2840122ECE711680022D243E8E7000044
:1061A000F3B50C468FB000200C90012000260E9015
:1061B00008460C3003906269039801219047051E40
:1061C0002ED0252D2DD0216A8847002818D062694D
:1061D000039801219047216A88470028F7D1626916
:1061E000411E0398904700E0761CA1690F988847EC
:1061F000216A88470028F7D1E1690F988847DAE7D4
:10620000A1690F988847A842074601D1761CD2E7BA
:10621000E1690F9888477F1C02D10C98002877D03D
:106220006BE16269039800273D46394690472A286A
:106230000CD16269039801219047012506E00A21EB
:106240004F433F18303FEBD4102005436269039859
:1062500001219047014630390A2903D2AC498F42C7
:10626000DEDCECE7E90600D4AA4F6C280AD04C2803
:1062700010D0682824D06A282ED074280CD07A2810
:106280000AD00DE062690398012190476C2823D061
:1062900004211CE0202005436269039801219047F6
:1062A000A760652865604FD026DC582839D01ADCF5
:1062B000452849D012DC252834D04128B0D143E00C
:1062C0006269039801219047682802D008210D4394
:1062D000E6E70120C002DEE70220DCE7462833D0F3
:1062E00047289DD130E05B2870D061282CD06328EE
:1062F0006CD0642894D161E06F284FD009DC662807
:1063000022D0672820D0692826D06E2817D12EE009
:10631000EFE070284DD073286FD075284ED07828C4
:106320000DD154E0A1690F9888472528054600D172
:106330006CE7E1690F9888476D1C00D16DE7DCE0E0
:106340000A224CE00A2252E0012023466A460F99B5
:10635000C043C046C046C5E0402128462346084306
:106360006060A80701D5002239E000223FE0E8077D
:1063700000D020E72068011D21600068290501D5B3
:10638000067018E7290701D5068014E7A90703D589
:10639000F117066041600EE706600CE740212846D1
:1063A000234608436060A80701D5082217E00822A9
:1063B0001DE0594928460840606016E04021284603
:1063C000234608436060A807BCD5B9E715E0402123
:1063D000284608436060A80707D5234610220120FD
:1063E0000F99C043C046C0467CE0102223460120DE
:1063F0000F99C043FEF780F974E0002163280B4633
:106400000191009102910D9102D05B2807D03BE0F1
:10641000E80601D40120A0600120009034E0E0688B
:1064200001210D906269039890475E2807D10120F1
:106430000190E06801210D906269039890472169FD
:10644000002906D10B4604AA8F00491C0829D35104
:10645000FADB002851D02169002926D00298401C7F
:10646000029062690398012190475D28F1D101985B
:10647000002808D0002004AB8100401C5A58D243A9
:1064800008285A50F8DB04AB2069002820791CD07A
:106490004007029A00980D9B0092224602901F48E6
:1064A0000F991DD5C046C0461CE0C117C90E09187A
:1064B0004A114909930004AA9A184901411A13681C
:1064C0000120884003431360CBE74007224613486E
:1064D0000F9902D5C046C04604E0FEF7B2F901E0CC
:1064E000C046C04600280ADA401C06D10E98002893
:1064F00003D00020C04311B0F0BD0C98FBE7E907C2
:1065000002D10C99491C0C91361800200E9052E6CD
:10651000CCCCCC0CFFFFFF7FF1F7FFFFFEFFFFFFAE
:1065200070B516460C46054600F03AF80368FF20A1
:106530000230C05C012807D0FF2C0ED8185D00285F
:106540000BD001202C7070BDFF333246214608333A
:106550001868C3182846984770BD0020C04370BD16
:10656000754600F0A1FBAE46050069465346C008DB
:10657000C000854618B020B5FDF78AFE60BC002734
:106580004908B6460026C0C5C0C5C0C5C0C5C0C5FF
:10659000C0C5C0C5C0C5403D49008D46704700001C
:1065A00010B500F005F8001D10BD00BF195B00001C
:1065B00000487047980B0020F8B51F460446012399
:1065C0000068DB02032601461840072A05DB002885
:1065D00001D017A506E017A504E0002801D016A5F4
:1065E00000E016A5102081432160A069C01E002F85
:1065F000A06101D0401EA0612046FEF7B5FF002F2C
:1066000009D038466268A1689047206A401C206221
:10661000C01C206206E0206AFAE762682878A16858
:106620006D1C9047761EF8D22046FEF7B3FFF8BDEA
:106630004E414E006E616E00494E4600696E660026
:10664000F7B516468AB0334878446C4603467C3327
:10665000C06F5A689B680DC42E487844763003ACEE
:106660000DC80DC43720C001081837211B30FEF7B4
:106670002FFA05460C46803D1B3C02D564420120A2
:1066800000E000200027099010E0E0070CD00C206B
:1066900020497843794432464C39411868460123F1
:1066A00000F054FA6B4607C364107F1C002CECD139
:1066B000184F7F442E3F16E0E80712D02001C01982
:1066C0000EC80691089307920068F04201D198190C
:1066D00008903246012306A903A800F037FA03AB5D
:1066E00007C36D10641C002DE6D10998002806D060
:1066F00032466946012303A800F07EFA05E0012333
:106700003246694603A800F021FA0A9B07C30DB080
:10671000F0BD0000B05B0000034640000A4610B523
:10672000400D0BD00121C9070F24A40200191C033E
:1067300064082143540D2143D20207E000210120C7
:10674000F2E7D40F490021435200401E0029F8DA35
:10675000DB0FDB07184310BDFFB50D46144685B0AF
:106760004868516805F0D0F900910190A868A168C7
:1067700005F0CAF902910390A868616805F0C4F9B0
:10678000029A12188242029201D2012000E00020F7
:10679000019A0B18D2180028019202D08A4202D91D
:1067A00003E08A4201D2012000E00020009908188D
:1067B00000906868A16805F0A7F9029A1218824251
:1067C000029201D2012000E00020019A0B18D21899
:1067D0000028019202D08A4202D903E08A4201D203
:1067E000012000E000200099081800902868216826
:1067F00040004900400849084018FA49471814E089
:1068000001994000C90F0843009001980299400087
:10681000C90F08430190029803994000C90F08432B
:106820000290039840007F1E039000980028E7DA4A
:106830000898002801D0EC4E00E00026B74201DAAB
:10684000012000E00020002804902AD0F71BF80661
:10685000C00E15D0029B2021091A039A8B401A43BF
:106860000392029A019BC2408B401A430292019A02
:10687000009BC2408B4000991A430192C140009195
:106880007B110DD06F460320C11A03D50021820071
:10689000B95003E08A008100BA587A50401EF3D5FF
:1068A000374603980299002800D001200143089838
:1068B0000291002808460CD0002800D00120019940
:1068C000019A490508430121D20AC902D202019264
:1068D00000E001210E9B0122D207012B02D0002BE8
:1068E00003D013E0002807D120E0904204D8904262
:1068F0000CD1019B0B4209D0019B5918019105D184
:106900000099491C009101D17F1C009200280DD0F4
:10691000102108460020C0460498002806D00F9891
:10692000002803D0082108460020C04628682168B6
:10693000019B009A4840C10F0598C90739430EC012
:1069400009B0F0BDFFB587B0099A08980899536857
:1069500092684068896896460022039317469446D9
:10696000089A12685300099A5B081268520052088C
:106970009A1A9E4BD4180A9A002A01D0352200E0B8
:10698000402206920022012315460492DB0705935C
:1069900024E0002D05D175460346039E4D1BB341EF
:1069A00009D375466646039B491B049D9841059B88
:1069B0007519AC465F4163463B4308D0059B049E76
:1069C000DD0776082E435B080496059301E0521E0E
:1069D000641EC50FED0749184041521C069B9A42A0
:1069E000D7DB002D04D17546039A6B1A824101D280
:1069F00003200CE0039A0B466B404240134303D044
:106A0000014303D0012002E0022000E000206146A3
:106A100001910021009702910A99002905D0614651
:106A200040020143704B019102E080070023029075
:106A30009C4201DA012000E0002007003AD01A1B36
:106A4000D006C00E15D0029D2021019C091AC54018
:106A50008C402543029C8C4000D001242543019C9E
:106A60000295009DC4408D4000992C430194C14083
:106A7000009154111DD06D460221002202290CD133
:106A80000320001B07E0002804DB8600AE59002E1F
:106A900000D00122401C0328F5DB081B02D588002A
:106AA0002A5004E08000285810438A00A850491E4C
:106AB000E3D51C460A98002802980CD0002800D084
:106AC00001200199019A490508430121D20AC9020E
:106AD000D202019200E00121109B0122D207012B7A
:106AE00002D0002B03D013E0002807D11FE0904212
:106AF00004D890420CD1019B0B4209D0019B59183C
:106B0000019105D10099491C009101D1641C0092AA
:106B100000280CD0102108460020C046002F06D0C7
:106B20001198002803D0082108460020C046089884
:106B30000999019A009B006809684840C10F0798AD
:106B4000C907214382600AC00BB0F0BD00B585B013
:106B5000019300920A460146002302A8FFF7FCFDBC
:106B600002A807C805B000BDFFB50A461F4685B09C
:106B70000799019301230091014602A8FFF7ECFD5C
:106B800002990398049ECA0F4900D20700920F226F
:106B9000490892028C1A0021002800DB0C464500AF
:106BA00013486D08844214D3079A002A04DA441E5D
:106BB0000026104DF64302E004460D460E46102115
:106BC00008460020C046002F03D0042108460020BC
:106BD000C0462005E90A0843009908436905F20AFE
:106BE0001143ADE602C0FFFF013C0000FF3F000083
:106BF000FF070000FFFFFF7F00B585B00193009203
:106C00000A460146002302A8FFF79CFE02A807C817
:106C1000A8E7FFB50A461F4685B0079901930123EF
:106C20000091014602A8FFF78DFE02990398049E89
:106C3000CA0F4900D20700920F22490892028C1A0B
:106C40000021002800DB0C46450011486D088442F5
:106C500014D3079A002A04DA441E00260D4DF64389
:106C600002E004460D460E46102108460020C046AC
:106C7000002F03D0042108460020C0462005E90A61
:106C80000843009908436905F20A114358E60000D9
:106C9000FF070000FFFFFF7F10B50446C046C04657
:106CA0002046FDF7C9FA10BD00487047780B002058
:106CB000024670B50A4392072AD11E4DEE0104C860
:106CC00008C9541B9443344017D0D0B2D9B2401AEB
:106CD0002106014310D190B299B2401A2104014318
:106CE0000AD110021902000A090A401A21020143BE
:106CF00002D1100E190E401A70BD9A42DFD010BAA0
:106D000019BA884201D9012070BD0020C04370BD6E
:106D100002780B78401C491C002A09D09A4207D1FE
:106D200002780B78401C491C002A01D09A42EFD00F
:106D3000D01A70BD0101010101491820ABBEFEE768
:106D400026000200704770B58C180578401C6B0750
:106D50005B0F01D10378401C2A1106D10278401C38
:106D600003E00678401C0E70491C5B1EF9D12B070E
:106D700005D40023521E0DD40B70491CFAE703788A
:106D8000401CCB1A921C03E01D780D70491C5B1C43
:106D9000521EF9D5A142D8D3002070BD30B589B0BC
:106DA0000C46054624216846FDF76DFE01200022B1
:106DB000C0020390009201951020641E0292069476
:106DC000059040020A4C089207900422694620462A
:106DD00002F04AFA21680120014321600103A16405
:106DE000034920314A6802434A6009B030BD0000BF
:106DF000000400400A484168C907C90F05D001686E
:106E0000C907C90F01D00121016041688907C90F75
:106E100005D001688907C90F01D0022101607047C0
:106E200000AC0140F0B5F848F74D4078F74C4035DC
:106E3000E7B000286ED1F44E29463078103101F0C9
:106E40005FFA070001D101207070EF4839465030D9
:106E500004F0F4FBEC483946503004F0D3FB3078B2
:106E6000030004F069FE275715151515151515575C
:106E700015151C151C15414B264B4B4B4B4B5757AF
:106E8000575757575757575757575757574B5700F5
:106E900001207070287B401C2873052005E001202C
:106EA0007070287B401C28733C206873D84A0321EB
:106EB0002DE06188002917D0D64FB81C01F021FEC3
:106EC0000221D5A004F0BAFB0221D4A004F0B6FB45
:106ED0006188B81C01F003FE0221CFA004F092FBF0
:106EE0000221CEA004F08EFB01207070287BC84ADE
:106EF000401C2873052068730A2108E00120707087
:106F0000287BC34A401C2873052068730146022071
:106F100005F01CF8C249C34803F0FEFF00287DD1EC
:106F20000C22C1A1BE48FDF700FDBD4900260C3171
:106F30000191002824D1FF21913102A8FDF7A3FD82
:106F400002AABDA10198FDF7B7FB00270BE079006D
:106F500002A8091809886A461180C219B7A16846B3
:106F6000FDF7AAFB7F1CAE48FDF70CFDB842EED240
:106F7000012102A803F076FBA64806700320A07149
:106F8000A14F3878030004F0D7FD27B3151E273032
:106F90003E7694B3FEEEB5CFF0ECEBEAE9E8B3E869
:106FA000B3E7B3B3B3B3E6E5E4E3E2B3B3B3B3B388
:106FB000B3E1B3000222A3A19948FDF7B6FC002873
:106FC0002CD1022064E202229EA19548FDF7ADFC7F
:106FD000002823D103205BE202229AA19048FDF70A
:106FE000A4FC00281AD1042052E2022295A18C4868
:106FF000FDF79BFC002806D1052038707E702E73AB
:10700000834805F01BF802228FA18548FDF78DFC0F
:107010007D4C1634002806D10F2200E068E080493C
:107020002046FDF7D1FC022286A17D48FDF77DFCBC
:1070300000285DD1022284A12046FDF776FC0028BD
:1070400056D1062038707E702E730F2221467F485D
:10705000FDF76BFC00280DD002227BA12046FDF736
:1070600064FC002806D10F2221467848FDF7ACFCCD
:1070700003F0E8FFD9E1022275A16948FDF755FC4C
:10708000614C2534002804D10F2265492046FDF7C4
:107090009BFC02226BA16248FDF747FC002827D128
:1070A00002226BA12046FDF740FC002820D10720DA
:1070B000EEE1072267A15A48FDF737FC002805D109
:1070C000574914220931B81CFDF77EFC02225DA14C
:1070D0005348FDF72AFC00280AD103225FA1B81CFF
:1070E000FDF723FC002803D10B2038702E737E702F
:1070F00067B0F0BD04225AA14948FDF716FC424C86
:107100002034002803D1464801F06CFA2075022291
:107110004CA14348FDF709FC0028E9D1207D401E21
:107120001E28E5D80C20B3E106224FA13C48FDF70C
:10713000FCFB002801D101207870022241A13848CF
:10714000FDF7F3FB0028D3D10D20A1E191E187E108
:107150007DE16EE15CE143E118E109E1D6E0CCE0DC
:10716000A8E02CE001E017E00DE0072240A12C4848
:10717000FDF7DBFB002803D12948807A3038E07224
:10718000E07A0128B4D102222EA12548FDF7CDFBDB
:107190000028ADD10A207BE1072237A12048FDF766
:1071A000C4FB0028A4D1E87B401CC0B2E8730228CD
:1071B0009ED30E2038707E702E73EE7335E105225B
:1071C0002FA11748FDF7B1FB002891D105A8831E18
:1071D000411E009305AA0290C31E0132104803927B
:1071E000019104AA28A10830FDF766FA04A801F06D
:1071F00005FC04A803F0F2FD002800D178E70F2079
:1072000046E12E7311E100002C0900200A01002044
:10721000517500000A0000202C3000000D0A00000B
:10722000B8070020280400202B4D324D434C495212
:107230004543563A000000002573000025303268AF
:10724000685800004F4B000038360000C80100208D
:10725000343600002A4D4943434944003839380048
:107260002B435351000000002B434553513A00007B
:107270002B43455245473A002B45474143543A007A
:107280002B43434C4B0000002530326868782F2593
:1072900030326868782F2530326868782C25303293
:1072A0006868783A2530326868783A2530326868FC
:1072B00078000000022279A17948FDF736FB00280A
:1072C00001D10120E071182276A17548FDF72DFB50
:1072D000002804D1E079012801D10220E0711722B1
:1072E00077A16F48FDF721FB002887D1E0790228BC
:1072F00084D10320E0711220CAE01A2276A16848E6
:10730000FDF713FB0028F0D1E6717AE7162279A188
:107310006348FDF70AFB0028E7D13E700120787032
:107320007A482E7306706680607A030004F004FCCD
:10733000061E04070F171A1E207AFD2101E0207A8D
:10734000FB21084020720F2003F068FF0EE0207A36
:10735000F72108402072192003F0B0FF06E0207AE0
:10736000EF21EEE7207ADF210840207266725CE0B0
:1073700002224AA14A48FDF7D8FA0028B5D13E704A
:107380000120787061482E730670B1E60C226049C6
:107390004348FDF7CAFA0028F7D1FF21913102A82E
:1073A000FDF771FB02AA5BA10198FDF785F90025A5
:1073B00002AF6800C01900886946088054497A19EC
:1073C00014316846FDF778F96D1CC82DF1DD0121F7
:1073D00002A803F047F94D4806700320A07187E624
:1073E0000C224DA12E48FDF7A0FA011E4E4803D1F4
:1073F0002B49097B30394176407EFF28C5D00222D7
:1074000026A12748FDF791FA0028BED11C2007E0ED
:10741000022222A12248FDF788FA0028B5D11D20BA
:107420003870012078702E736680404804F006FEA4
:107430005EE60F223EA11A48FDF777FA0028A4D095
:10744000394A3FA110321648FDF736F950E60222BC
:1074500012A11348FDF769FA002896D11F20DFE733
:1074600002220EA10E48FDF760FA00288DD13E7071
:10747000D7E7022209A10A48FDF757FA00280AD0E7
:10748000052231A10648FDF750FA0028A7D11020A7
:1074900038707E70B5E60120FAE700004F4B00001F
:1074A000B80700202B4D324D434C493A726567694D
:1074B00073746572207375636365737300000000F5
:1074C0002B4D324D434C493A6F627365727665209D
:1074D00073756363657373002B4D324D434C493AAA
:1074E000646572656769737465722073756363653B
:1074F000737300002B4D324D434C493A6E6F7469E3
:107500006679207375636365737300000A00002059
:1075100028720000257300002B45485454504352F4
:107520004541543A00000000580100205175000008
:10753000436F6E74656E742D4C656E6774683A00A7
:10754000252A733A257500004552524F520000001B
:1075500070B5134B00245C70197818460125403033
:10756000262901D11D700473017B427B914213D304
:10757000827B0C49012A06D909208871C81FF93875
:1075800004705D7008E003258D71CC71CC722621EA
:107590001970521C82730473034804F04FFD70BDD0
:1075A0002C0900200A0100205175000010B500F0E0
:1075B0000BF8002000F044F8024800218160491EC9
:1075C000416010BD000D004000B585B01421684633
:1075D000FDF759FA672109021648009182690A43AA
:1075E000826101210191002102910391694602F01B
:1075F0005BF8104810494030009182690A4382616B
:10760000694602F051F80B480C49803000918269BC
:107610000A438261694602F047F808490548C731C4
:10762000C030009182690A438261694602F03CF8E9
:1076300005B000BD000C00400C6F00003C070000CE
:10764000002801D10149886270470000000C004009
:1076500010B50748C168C907C90F07D00169C90734
:10766000C90F03D00121016104F056FC10BD0000D8
:1076700000B4014001090A2200075143000F081815
:10768000C0B2704770B50646FF20002401300D4699
:1076900081420AD804E0315D04A004F005FC641CBA
:1076A000AC42F8DD03A004F0FFFB70BD253032587A
:1076B000000000000D0A000070B505460A480023CE
:1076C0000A4C0EE0EA5C50400022C60702D0400897
:1076D000604000E04008521C92B2082AF5D35B1CBF
:1076E0009BB28B42EED370BDFFFF000001A00000F3
:1076F000F0B50E4DAB68A860002019270C4EBF01F5
:107700000FE00B5C2C682B60B4696B681B07DB0F08
:1077100005D0B369E31A1B021B0ABB42F5D3401C18
:1077200080B29042EDD3286880B2F0BD0080014065
:1077300000E000E0F0B586B0002469460C808C8043
:1077400002AA69468B885D211D0249026918E2C9B7
:10775000059702AF62C70021555CFF2D03D1491C7C
:10776000C9B21029F8D3102912D16E463188367962
:107770004D002D182E716E4676796E71491C89B2B6
:107780006E463180104E35886D1E3580282905D80B
:107790005B1C99B26B469980A029D2D369460988AF
:1077A000047000290CD0012242706A46127882705F
:1077B0006A465278C2704800001D80B206B0F0BD23
:1077C00044700220FAE70000140200207CB500207B
:1077D0002B4D0090044601902878552846D16878B2
:1077E000502843D101F068FA5D20400203C86A4680
:1077F00001910090517810780902401886B2D17832
:1078000090780902401811795279090412068918F2
:1078100042186868904201D01AA025E01F4920480C
:10782000921EFFF765FF85B2324629461DA004F07F
:107830003BFBAE4222D11725ED025C2000F054FC48
:107840000C220F49284600F097FC0C2229460C48D0
:10785000FDF76BF8002804D0641CE4B2032CECD3D1
:1078600001E0032C03D317A004F01EFB7CBD1AA07B
:1078700004F01AFB20491F4848607CBD1FA0F3E7B5
:107880002C020020CEC4BCFEB3A4B6C8B4EDCEF327
:10789000A3A1A3A1A3A10D0A0000000002BA000049
:1078A000FFFF0000636865635F5F6372632D2530CF
:1078B00034582066696C655F5F6372632D253034D0
:1078C000580D0A00D0B4C9FDBCB6B1EAD6BECAA7ED
:1078D000B0DC0D0A00000000436865636B204F4B6D
:1078E0002120476F20746F20426F6F744C6F61646A
:1078F000210D0A00BBAA5C5C00020040D0A3D1E9C4
:10790000B4EDCEF30D0A000010B51B480268022149
:107910000A43026082680A438260C3680C22934370
:107920000022C36043688B434360C169134C8907DD
:1079300005D52178491CC9B22170042904D92270C7
:10794000C0698007C00F60700D4A6178908AC307D4
:10795000DB0F8B420ED04008CB074000DB0F1843F3
:10796000908208A004F0A0FA6078002802D10520D7
:1079700003F066FD10BD0000C00C00407501002042
:10798000C80100202AC9E8B1B8D2C6B6AF3A20254E
:1079900068752A0D0A00000010B50D4A2D231088C5
:1079A0005B01401C81B20B481180408843438B42ED
:1079B0000CD200280AD00749002010804039888A5C
:1079C000042210438882052003F03AFD10BD000018
:1079D0007A0100200802002070B522488079002832
:1079E00018D121484079012814D0204CA078401C9F
:1079F000C0B2A070052816D30025A57000F006FFC0
:107A00001B49884202DC1B49884204D900F026FC4D
:107A10001949086070BD1949884203DBE078401CB1
:107A2000E07000E02571E078062801D9012020717E
:107A300013482179007D0007C00F8842EAD0012950
:107A4000E8D120710E482030C17E002902D1807E0D
:107A5000002803D0052003F0F3FC70BD052003F0DF
:107A60005FFB70BD0A010020B809002075010020ED
:107A70000000AA42000070C12802002000005C4201
:107A8000C8010020F0B5002485B00646201F0490F0
:107A90003D2003948002006802906846007AFF2827
:107AA0002DD01F21002304AAC902184804F06FF842
:107AB000684603F01FF968460471447104F0BAF98E
:107AC000E1273F01C51902A804F0B4F9044604985F
:107AD000002807DB011DCA17920F511889103A467A
:107AE00051430C1915214901884208DC281B3946ED
:107AF000FCF7E4FF0004000C01D0A54202D20020F4
:107B000005B0F0BD002EFBD03460F9E704F40000AE
:107B10001CB5684603F0EEF8274C6088052801D8AC
:107B2000401C60802548007A01281DD02349224846
:107B30000522891F001DFCF747FF2048002220383E
:107B4000817E032915D001292ED002292BD1C07E98
:107B5000002828D021883C23491C89B22180584321
:107B6000884220D822801BE01348001D04F03CF816
:107B7000E3E7C17E002916D06388052B13D362800A
:107B80006A46D278437F9A420DD16A461279807F45
:107B9000824208D12088401C80B22080814202D8D5
:107BA000022003F04DFC1CBDC07E0028FBD02188C4
:107BB000491C89B22180D3E7000000200802002080
:107BC0004168C905C90F04D18168C905C90F00D032
:107BD00001694168C907C90F05D18168C907C90F83
:107BE00001D001218160704710B5124C0421601C46
:107BF000FCF747FFFF21204691312E30FCF741FF73
:107C00000D488168490849008160002121700B48B6
:107C1000617101800A480423828A9A438282204645
:107C200018300175074804F009FA074804F006FA0D
:107C300010BD0000B809002000AC01407A0100200E
:107C4000C8010020A98D0000ED7D000010B513498A
:107C500011480860002002F055F811480068C2433E
:107C6000010C92B2914200D030204006400E02F04A
:107C700053F80C48C168C908C900C160C16807222F
:107C800012029143C160C16812029143C160C16890
:107C9000D2009143C16010BD00127A00180200208A
:107CA00040FBFF1F0002004010B51649087D142854
:107CB00004D241220A54087D401C08751148183826
:107CC0004179002916D10124447100780D49400002
:107CD000163140180221FFF761F80B4881682143F3
:107CE00081608168022211438160084A32210120AB
:107CF00004F02CF97D21064AC900012004F026F980
:107D000010BD0000D009002000AC0140ED7D000056
